:1008810044524F5753595F445249564552004445CB
:1008910054454354494E472053595354454D004400
:1008A10072697665725F697320202000536C6565FB
:1008B10070696E672E2E2E202020004472697665A5
:0B08C10072206973206E6F742020000D
:1008F700E4FDFCEFFBC3ED9B7480F86C985015E4A6
:10090700FBFA0BBB00010ABA03F8BBE9F50DBD0002
:04091700010C80DF70
:01091B0022B9
:10093500E4F508F509F50A8F0B7F0A1208F7E4F5C7
:0309450083F582B5
:01094800228C
:0E094900D2B78FA0D2B67F0A1208F7C2B6222C
:0608CC007BFF7A0879AD04
:1008D2008B088A09890AAB08AA09A90A12091C60AD
:1008E20013050AE50A7002050914F912091CFF1220
:0508F200094980E2222B
:10080000C292C293C294C295C2917F031209357FEE
:100810000E1209357F801209357BFF7A0879811223
:1008200008D27FC01209357BFF7A08798F1208D26F
:100830007FF41208F77F01120935209022D291C26D
:1008400092C293C294C2957F801209357BFF7A08C9
:1008500079A01208D27FC01209351208CC80DBC201
:1008600091D292C293D294C2957F801209357BFFB8
:100870007A0879BC1208D27FC01209351208CC80E0
:01088000B9BE
:030000000209579B
:0C095700787FE4F6D8FD75810B020800E3
:10091C00BB010689828A83E0225002E722BBFE02D9
:09092C00E32289828A83E493220C
:00000001FF
